{"contracts/DiplomaVerifier.sol":{"DiplomaVerifier":{"abi":[{"anonymous":false,"inputs":[{"indexed":true,"internalType":"uint256","name":"diplomaId","type":"uint256"},{"indexed":false,"internalType":"uint256","name":"nameHash","type":"uint256"},{"indexed":false,"internalType":"uint256","name":"majorCode","type":"uint256"},{"indexed":false,"internalType":"string","name":"studentId","type":"string"},{"indexed":false,"internalType":"string","name":"issueDate","type":"string"}],"name":"DiplomaVerified","type":"event"},{"inputs":[{"internalType":"uint256","name":"nameHash","type":"uint256"},{"internalType":"uint256","name":"majorCode","type":"uint256"},{"internalType":"string","name":"studentId","type":"string"},{"internalType":"string","name":"issueDate","type":"string"}],"name":"addDiploma","outputs":[{"internalType":"uint256","name":"","type":"uint256"}],"stateMutability":"nonpayable","type":"function"},{"inputs":[{"internalType":"uint256","name":"","type":"uint256"}],"name":"diplomas","outputs":[{"internalType":"uint256","name":"nameHash","type":"uint256"},{"internalType":"uint256","name":"majorCode","type":"uint256"},{"internalType":"string","name":"studentId","type":"string"},{"internalType":"string","name":"issueDate","type":"string"},{"internalType":"bool","name":"verified","type":"bool"}],"stateMutability":"view","type":"function"},{"inputs":[{"internalType":"uint256","name":"diplomaId","type":"uint256"}],"name":"isDiplomaVerified","outputs":[{"internalType":"bool","name":"","type":"bool"}],"stateMutability":"view","type":"function"},{"inputs":[{"internalType":"uint256","name":"","type":"uint256"}],"name":"verifiedDiplomas","outputs":[{"internalType":"bool","name":"","type":"bool"}],"stateMutability":"view","type":"function"},{"inputs":[{"internalType":"uint256","name":"diplomaId","type":"uint256"},{"internalType":"uint256[2]","name":"a","type":"uint256[2]"},{"internalType":"uint256[2][2]","name":"b","type":"uint256[2][2]"},{"internalType":"uint256[2]","name":"c","type":"uint256[2]"},{"internalType":"uint256[1]","name":"input","type":"uint256[1]"}],"name":"verifyDiploma","outputs":[],"stateMutability":"nonpayable","type":"function"},{"inputs":[{"internalType":"uint256[2]","name":"a","type":"uint256[2]"},{"internalType":"uint256[2][2]","name":"b","type":"uint256[2][2]"},{"internalType":"uint256[2]","name":"c","type":"uint256[2]"},{"internalType":"uint256[1]","name":"input","type":"uint256[1]"}],"name":"verifyProof","outputs":[{"internalType":"bool","name":"","type":"bool"}],"stateMutability":"view","type":"function"}],"evm":{"bytecode":{"linkReferences":{},"object":"608060405234801561001057600080fd5b50611188806100206000396000f3fe608060405234801561001057600080fd5b50600436106100625760003560e01c806335dfc1c314610067578063373f08d61461009b57806343753b4d146100cb578063764825d1146100fb5780638e1a259314610117578063efff8d6a14610147575b600080fd5b610081600480360381019061007c91906106f9565b610177565b6040516100929594939291906107e0565b60405180910390f35b6100b560048036038101906100b09190610976565b6102ca565b6040516100c29190610a15565b60405180910390f35b6100e560048036038101906100e09190610c48565b610390565b6040516100f29190610cb1565b60405180910390f35b61011560048036038101906101109190610ccc565b61039e565b005b610131600480360381019061012c91906106f9565b610641565b60405161013e9190610cb1565b60405180910390f35b610161600480360381019061015c91906106f9565b61066b565b60405161016e9190610cb1565b60405180910390f35b60016020528060005260406000206000915090508060000154908060010154908060020180546101a690610d78565b80601f01602080910402602001604051908101604052809291908181526020018280546101d290610d78565b801561021f5780601f106101f45761010080835404028352916020019161021f565b820191906000526020600020905b81548152906001019060200180831161020257829003601f168201915b50505050509080600301805461023490610d78565b80601f016020809104026020016040519081016040528092919081815260200182805461026090610d78565b80156102ad5780601f10610282576101008083540402835291602001916102ad565b820191906000526020600020905b81548152906001019060200180831161029057829003601f168201915b5050505050908060040160009054906101000a900460ff16905085565b60006102d6600061068b565b60006102e260006106a1565b90506040518060a0016040528087815260200186815260200185815260200184815260200160001515815250600160008381526020019081526020016000206000820151816000015560208201518160010155604082015181600201908161034a9190610f55565b5060608201518160030190816103609190610f55565b5060808201518160040160006101000a81548160ff02191690831515021790555090505080915050949350505050565b600060019050949350505050565b6002600086815260200190815260200160002060009054906101000a900460ff16156103ff576040517f08c379a00000000000000000000000000000000000000000000000000000000081526004016103f690611073565b60405180910390fd5b61040b84848484610390565b61044a576040517f08c379a0000000000000000000000000000000000000000000000000000000008152600401610441906110df565b60405180910390fd5b6000600160008781526020019081526020016000206040518060a0016040529081600082015481526020016001820154815260200160028201805461048e90610d78565b80601f01602080910402602001604051908101604052809291908181526020018280546104ba90610d78565b80156105075780601f106104dc57610100808354040283529160200191610507565b820191906000526020600020905b8154815290600101906020018083116104ea57829003601f168201915b5050505050815260200160038201805461052090610d78565b80601f016020809104026020016040519081016040528092919081815260200182805461054c90610d78565b80156105995780601f1061056e57610100808354040283529160200191610599565b820191906000526020600020905b81548152906001019060200180831161057c57829003601f168201915b505050505081526020016004820160009054906101000a900460ff161515151581525050905060016002600088815260200190815260200160002060006101000a81548160ff021916908315150217905550857fb233c6bbaeb709e46d39bfc4716d6bc71b577450e6ecbe11b02bb458fc9c9ebb826000015183602001518460400151856060015160405161063194939291906110ff565b60405180910390a2505050505050565b60006002600083815260200190815260200160002060009054906101000a900460ff169050919050565b60026020528060005260406000206000915054906101000a900460ff1681565b6001816000016000828254019250508190555050565b600081600001549050919050565b6000604051905090565b600080fd5b600080fd5b6000819050919050565b6106d6816106c3565b81146106e157600080fd5b50565b6000813590506106f3816106cd565b92915050565b60006020828403121561070f5761070e6106b9565b5b600061071d848285016106e4565b91505092915050565b61072f816106c3565b82525050565b600081519050919050565b600082825260208201905092915050565b60005b8381101561076f578082015181840152602081019050610754565b60008484015250505050565b6000601f19601f8301169050919050565b600061079782610735565b6107a18185610740565b93506107b1818560208601610751565b6107ba8161077b565b840191505092915050565b60008115159050919050565b6107da816107c5565b82525050565b600060a0820190506107f56000830188610726565b6108026020830187610726565b8181036040830152610814818661078c565b90508181036060830152610828818561078c565b905061083760808301846107d1565b9695505050505050565b600080fd5b600080fd5b7f4e487b7100000000000000000000000000000000000000000000000000000000600052604160045260246000fd5b6108838261077b565b810181811067ffffffffffffffff821117156108a2576108a161084b565b5b80604052505050565b60006108b56106af565b90506108c1828261087a565b919050565b600067ffffffffffffffff8211156108e1576108e061084b565b5b6108ea8261077b565b9050602081019050919050565b82818337600083830152505050565b6000610919610914846108c6565b6108ab565b90508281526020810184848401111561093557610934610846565b5b6109408482856108f7565b509392505050565b600082601f83011261095d5761095c610841565b5b813561096d848260208601610906565b91505092915050565b600080600080608085870312156109905761098f6106b9565b5b600061099e878288016106e4565b94505060206109af878288016106e4565b935050604085013567ffffffffffffffff8111156109d0576109cf6106be565b5b6109dc87828801610948565b925050606085013567ffffffffffffffff8111156109fd576109fc6106be565b5b610a0987828801610948565b91505092959194509250565b6000602082019050610a2a6000830184610726565b92915050565b600067ffffffffffffffff821115610a4b57610a4a61084b565b5b602082029050919050565b600080fd5b6000610a6e610a6984610a30565b6108ab565b90508060208402830185811115610a8857610a87610a56565b5b835b81811015610ab15780610a9d88826106e4565b845260208401935050602081019050610a8a565b5050509392505050565b600082601f830112610ad057610acf610841565b5b6002610add848285610a5b565b91505092915050565b600067ffffffffffffffff821115610b0157610b0061084b565b5b602082029050919050565b6000610b1f610b1a84610ae6565b6108ab565b90508060408402830185811115610b3957610b38610a56565b5b835b81811015610b625780610b4e8882610abb565b845260208401935050604081019050610b3b565b5050509392505050565b600082601f830112610b8157610b80610841565b5b6002610b8e848285610b0c565b91505092915050565b600067ffffffffffffffff821115610bb257610bb161084b565b5b602082029050919050565b6000610bd0610bcb84610b97565b6108ab565b90508060208402830185811115610bea57610be9610a56565b5b835b81811015610c135780610bff88826106e4565b845260208401935050602081019050610bec565b5050509392505050565b600082601f830112610c3257610c31610841565b5b6001610c3f848285610bbd565b91505092915050565b6000806000806101208587031215610c6357610c626106b9565b5b6000610c7187828801610abb565b9450506040610c8287828801610b6c565b93505060c0610c9387828801610abb565b925050610100610ca587828801610c1d565b91505092959194509250565b6000602082019050610cc660008301846107d1565b92915050565b60008060008060006101408688031215610ce957610ce86106b9565b5b6000610cf7888289016106e4565b9550506020610d0888828901610abb565b9450506060610d1988828901610b6c565b93505060e0610d2a88828901610abb565b925050610120610d3c88828901610c1d565b9150509295509295909350565b7f4e487b7100000000000000000000000000000000000000000000000000000000600052602260045260246000fd5b60006002820490506001821680610d9057607f821691505b602082108103610da357610da2610d49565b5b50919050565b60008190508160005260206000209050919050565b60006020601f8301049050919050565b600082821b905092915050565b600060088302610e0b7fffffffffffffffffffffffffffffffffffffffffffffffffffffffffffffffff82610dce565b610e158683610dce565b95508019841693508086168417925050509392505050565b6000819050919050565b6000610e52610e4d610e48846106c3565b610e2d565b6106c3565b9050919050565b6000819050919050565b610e6c83610e37565b610e80610e7882610e59565b848454610ddb565b825550505050565b600090565b610e95610e88565b610ea0818484610e63565b505050565b5b81811015610ec457610eb9600082610e8d565b600181019050610ea6565b5050565b601f821115610f0957610eda81610da9565b610ee384610dbe565b81016020851015610ef2578190505b610f06610efe85610dbe565b830182610ea5565b50505b505050565b600082821c905092915050565b6000610f2c60001984600802610f0e565b1980831691505092915050565b6000610f458383610f1b565b9150826002028217905092915050565b610f5e82610735565b67ffffffffffffffff811115610f7757610f7661084b565b5b610f818254610d78565b610f8c828285610ec8565b600060209050601f831160018114610fbf5760008415610fad578287015190505b610fb78582610f39565b86555061101f565b601f198416610fcd86610da9565b60005b82811015610ff557848901518255600182019150602085019450602081019050610fd0565b86831015611012578489015161100e601f891682610f1b565b8355505b6001600288020188555050505b505050505050565b7f4469706c6f6d6120616c72656164792076657269666965640000000000000000600082015250565b600061105d601883610740565b915061106882611027565b602082019050919050565b6000602082019050818103600083015261108c81611050565b9050919050565b7f496e76616c69642070726f6f6600000000000000000000000000000000000000600082015250565b60006110c9600d83610740565b91506110d482611093565b602082019050919050565b600060208201905081810360008301526110f8816110bc565b9050919050565b60006080820190506111146000830187610726565b6111216020830186610726565b8181036040830152611133818561078c565b90508181036060830152611147818461078c565b90509594505050505056fea2646970667358221220100c1b841eefc54e29f62db890a3016823e239719813edc735517ec6d3abf1b464736f6c63430008130033","opcodes":"PUSH1 0x80 PUSH1 0x40 MSTORE CALLVALUE DUP1 ISZERO PUSH2 0x10 JUMPI PUSH1 0x0 DUP1 REVERT JUMPDEST POP PUSH2 0x1188 DUP1 PUSH2 0x20 PUSH1 0x0 CODECOPY PUSH1 0x0 RETURN INVALID PUSH1 0x80 PUSH1 0x40 MSTORE CALLVALUE DUP1 ISZERO PUSH2 0x10 JUMPI PUSH1 0x0 DUP1 REVERT JUMPDEST POP PUSH1 0x4 CALLDATASIZE LT PUSH2 0x62 JUMPI PUSH1 0x0 CALLDATALOAD PUSH1 0xE0 SHR DUP1 PUSH4 0x35DFC1C3 EQ PUSH2 0x67 JUMPI DUP1 PUSH4 0x373F08D6 EQ PUSH2 0x9B JUMPI DUP1 PUSH4 0x43753B4D EQ PUSH2 0xCB JUMPI DUP1 PUSH4 0x764825D1 EQ PUSH2 0xFB JUMPI DUP1 PUSH4 0x8E1A2593 EQ PUSH2 0x117 JUMPI DUP1 PUSH4 0xEFFF8D6A EQ PUSH2 0x147 JUMPI JUMPDEST PUSH1 0x0 DUP1 REVERT JUMPDEST PUSH2 0x81 PUSH1 0x4 DUP1 CALLDATASIZE SUB DUP2 ADD SWAP1 PUSH2 0x7C SWAP2 SWAP1 PUSH2 0x6F9 JUMP JUMPDEST PUSH2 0x177 JUMP JUMPDEST PUSH1 0x40 MLOAD PUSH2 0x92 SWAP6 SWAP5 SWAP4 SWAP3 SWAP2 SWAP1 PUSH2 0x7E0 JUMP JUMPDEST PUSH1 0x40 MLOAD DUP1 SWAP2 SUB SWAP1 RETURN JUMPDEST PUSH2 0xB5 PUSH1 0x4 DUP1 CALLDATASIZE SUB DUP2 ADD SWAP1 PUSH2 0xB0 SWAP2 SWAP1 PUSH2 0x976 JUMP JUMPDEST PUSH2 0x2CA JUMP JUMPDEST PUSH1 0x40 MLOAD PUSH2 0xC2 SWAP2 SWAP1 PUSH2 0xA15 JUMP JUMPDEST PUSH1 0x40 MLOAD DUP1 SWAP2 SUB SWAP1 RETURN JUMPDEST PUSH2 0xE5 PUSH1 0x4 DUP1 CALLDATASIZE SUB DUP2 ADD SWAP1 PUSH2 0xE0 SWAP2 SWAP1 PUSH2 0xC48 JUMP JUMPDEST PUSH2 0x390 JUMP JUMPDEST PUSH1 0x40 MLOAD PUSH2 0xF2 SWAP2 SWAP1 PUSH2 0xCB1 JUMP JUMPDEST PUSH1 0x40 MLOAD DUP1 SWAP2 SUB SWAP1 RETURN JUMPDEST PUSH2 0x115 PUSH1 0x4 DUP1 CALLDATASIZE SUB DUP2 ADD SWAP1 PUSH2 0x110 SWAP2 SWAP1 PUSH2 0xCCC JUMP JUMPDEST PUSH2 0x39E JUMP JUMPDEST STOP JUMPDEST PUSH2 0x131 PUSH1 0x4 DUP1 CALLDATASIZE SUB DUP2 ADD SWAP1 PUSH2 0x12C SWAP2 SWAP1 PUSH2 0x6F9 JUMP JUMPDEST PUSH2 0x641 JUMP JUMPDEST PUSH1 0x40 MLOAD PUSH2 0x13E SWAP2 SWAP1 PUSH2 0xCB1 JUMP JUMPDEST PUSH1 0x40 MLOAD DUP1 SWAP2 SUB SWAP1 RETURN JUMPDEST PUSH2 0x161 PUSH1 0x4 DUP1 CALLDATASIZE SUB DUP2 ADD SWAP1 PUSH2 0x15C SWAP2 SWAP1 PUSH2 0x6F9 JUMP JUMPDEST PUSH2 0x66B JUMP JUMPDEST PUSH1 0x40 MLOAD PUSH2 0x16E SWAP2 SWAP1 PUSH2 0xCB1 JUMP JUMPDEST PUSH1 0x40 MLOAD DUP1 SWAP2 SUB SWAP1 RETURN JUMPDEST PUSH1 0x1 PUSH1 0x20 MSTORE DUP1 PUSH1 0x0 MSTORE PUSH1 0x40 PUSH1 0x0 KECCAK256 PUSH1 0x0 SWAP2 POP SWAP1 POP DUP1 PUSH1 0x0 ADD SLOAD SWAP1 DUP1 PUSH1 0x1 ADD SLOAD SWAP1 DUP1 PUSH1 0x2 ADD DUP1 SLOAD PUSH2 0x1A6 SWAP1 PUSH2 0xD78 JUMP JUMPDEST DUP1 PUSH1 0x1F ADD PUSH1 0x20 DUP1 SWAP2 DIV MUL PUSH1 0x20 ADD PUSH1 0x40 MLOAD SWAP1 DUP2 ADD PUSH1 0x40 MSTORE DUP1 SWAP3 SWAP2 SWAP1 DUP2 DUP2 MSTORE PUSH1 0x20 ADD DUP3 DUP1 SLOAD PUSH2 0x1D2 SWAP1 PUSH2 0xD78 JUMP JUMPDEST DUP1 ISZERO PUSH2 0x21F JUMPI DUP1 PUSH1 0x1F LT PUSH2 0x1F4 JUMPI PUSH2 0x100 DUP1 DUP4 SLOAD DIV MUL DUP4 MSTORE SWAP2 PUSH1 0x20 ADD SWAP2 PUSH2 0x21F JUMP JUMPDEST DUP3 ADD SWAP2 SWAP1 PUSH1 0x0 MSTORE PUSH1 0x20 PUSH1 0x0 KECCAK256 SWAP1 JUMPDEST DUP2 SLOAD DUP2 MSTORE SWAP1 PUSH1 0x1 ADD SWAP1 PUSH1 0x20 ADD DUP1 DUP4 GT PUSH2 0x202 JUMPI DUP3 SWAP1 SUB PUSH1 0x1F AND DUP3 ADD SWAP2 JUMPDEST POP POP POP POP POP SWAP1 DUP1 PUSH1 0x3 ADD DUP1 SLOAD PUSH2 0x234 SWAP1 PUSH2 0xD78 JUMP JUMPDEST DUP1 PUSH1 0x1F ADD PUSH1 0x20 DUP1 SWAP2 DIV MUL PUSH1 0x20 ADD PUSH1 0x40 MLOAD SWAP1 DUP2 ADD PUSH1 0x40 MSTORE DUP1 SWAP3 SWAP2 SWAP1 DUP2 DUP2 MSTORE PUSH1 0x20 ADD DUP3 DUP1 SLOAD PUSH2 0x260 SWAP1 PUSH2 0xD78 JUMP JUMPDEST DUP1 ISZERO PUSH2 0x2AD JUMPI DUP1 PUSH1 0x1F LT PUSH2 0x282 JUMPI PUSH2 0x100 DUP1 DUP4 SLOAD DIV MUL DUP4 MSTORE SWAP2 PUSH1 0x20 ADD SWAP2 PUSH2 0x2AD JUMP JUMPDEST DUP3 ADD SWAP2 SWAP1 PUSH1 0x0 MSTORE PUSH1 0x20 PUSH1 0x0 KECCAK256 SWAP1 JUMPDEST DUP2 SLOAD DUP2 MSTORE SWAP1 PUSH1 0x1 ADD SWAP1 PUSH1 0x20 ADD DUP1 DUP4 GT PUSH2 0x290 JUMPI DUP3 SWAP1 SUB PUSH1 0x1F AND DUP3 ADD SWAP2 JUMPDEST POP POP POP POP POP SWAP1 DUP1 PUSH1 0x4 ADD PUSH1 0x0 SWAP1 SLOAD SWAP1 PUSH2 0x100 EXP SWAP1 DIV PUSH1 0xFF AND SWAP1 POP DUP6 JUMP JUMPDEST PUSH1 0x0 PUSH2 0x2D6 PUSH1 0x0 PUSH2 0x68B JUMP JUMPDEST PUSH1 0x0 PUSH2 0x2E2 PUSH1 0x0 PUSH2 0x6A1 JUMP JUMPDEST SWAP1 POP PUSH1 0x40 MLOAD DUP1 PUSH1 0xA0 ADD PUSH1 0x40 MSTORE DUP1 DUP8 DUP2 MSTORE PUSH1 0x20 ADD DUP7 DUP2 MSTORE PUSH1 0x20 ADD DUP6 DUP2 MSTORE PUSH1 0x20 ADD DUP5 DUP2 MSTORE PUSH1 0x20 ADD PUSH1 0x0 ISZERO ISZERO DUP2 MSTORE POP PUSH1 0x1 PUSH1 0x0 DUP4 DUP2 MSTORE PUSH1 0x20 ADD SWAP1 DUP2 MSTORE PUSH1 0x20 ADD PUSH1 0x0 KECCAK256 PUSH1 0x0 DUP3 ADD MLOAD DUP2 PUSH1 0x0 ADD SSTORE PUSH1 0x20 DUP3 ADD MLOAD DUP2 PUSH1 0x1 ADD SSTORE PUSH1 0x40 DUP3 ADD MLOAD DUP2 PUSH1 0x2 ADD SWAP1 DUP2 PUSH2 0x34A SWAP2 SWAP1 PUSH2 0xF55 JUMP JUMPDEST POP PUSH1 0x60 DUP3 ADD MLOAD DUP2 PUSH1 0x3 ADD SWAP1 DUP2 PUSH2 0x360 SWAP2 SWAP1 PUSH2 0xF55 JUMP JUMPDEST POP PUSH1 0x80 DUP3 ADD MLOAD DUP2 PUSH1 0x4 ADD PUSH1 0x0 PUSH2 0x100 EXP DUP2 SLOAD DUP2 PUSH1 0xFF MUL NOT AND SWAP1 DUP4 ISZERO ISZERO MUL OR SWAP1 SSTORE POP SWAP1 POP POP DUP1 SWAP2 POP POP SWAP5 SWAP4 POP POP POP POP JUMP JUMPDEST PUSH1 0x0 PUSH1 0x1 SWAP1 POP SWAP5 SWAP4 POP POP POP POP JUMP JUMPDEST PUSH1 0x2 PUSH1 0x0 DUP7 DUP2 MSTORE PUSH1 0x20 ADD SWAP1 DUP2 MSTORE PUSH1 0x20 ADD PUSH1 0x0 KECCAK256 PUSH1 0x0 SWAP1 SLOAD SWAP1 PUSH2 0x100 EXP SWAP1 DIV PUSH1 0xFF AND ISZERO PUSH2 0x3FF JUMPI PUSH1 0x40 MLOAD PUSH32 0x8C379A000000000000000000000000000000000000000000000000000000000 DUP2 MSTORE PUSH1 0x4 ADD PUSH2 0x3F6 SWAP1 PUSH2 0x1073 JUMP JUMPDEST PUSH1 0x40 MLOAD DUP1 SWAP2 SUB SWAP1 REVERT JUMPDEST PUSH2 0x40B DUP5 DUP5 DUP5 DUP5 PUSH2 0x390 JUMP JUMPDEST PUSH2 0x44A JUMPI PUSH1 0x40 MLOAD PUSH32 0x8C379A000000000000000000000000000000000000000000000000000000000 DUP2 MSTORE PUSH1 0x4 ADD PUSH2 0x441 SWAP1 PUSH2 0x10DF JUMP JUMPDEST PUSH1 0x40 MLOAD DUP1 SWAP2 SUB SWAP1 REVERT JUMPDEST PUSH1 0x0 PUSH1 0x1 PUSH1 0x0 DUP8 DUP2 MSTORE PUSH1 0x20 ADD SWAP1 DUP2 MSTORE PUSH1 0x20 ADD PUSH1 0x0 KECCAK256 PUSH1 0x40 MLOAD DUP1 PUSH1 0xA0 ADD PUSH1 0x40 MSTORE SWAP1 DUP2 PUSH1 0x0 DUP3 ADD SLOAD DUP2 MSTORE PUSH1 0x20 ADD PUSH1 0x1 DUP3 ADD SLOAD DUP2 MSTORE PUSH1 0x20 ADD PUSH1 0x2 DUP3 ADD DUP1 SLOAD PUSH2 0x48E SWAP1 PUSH2 0xD78 JUMP JUMPDEST DUP1 PUSH1 0x1F ADD PUSH1 0x20 DUP1 SWAP2 DIV MUL PUSH1 0x20 ADD PUSH1 0x40 MLOAD SWAP1 DUP2 ADD PUSH1 0x40 MSTORE DUP1 SWAP3 SWAP2 SWAP1 DUP2 DUP2 MSTORE PUSH1 0x20 ADD DUP3 DUP1 SLOAD PUSH2 0x4BA SWAP1 PUSH2 0xD78 JUMP JUMPDEST DUP1 ISZERO PUSH2 0x507 JUMPI DUP1 PUSH1 0x1F LT PUSH2 0x4DC JUMPI PUSH2 0x100 DUP1 DUP4 SLOAD DIV MUL DUP4 MSTORE SWAP2 PUSH1 0x20 ADD SWAP2 PUSH2 0x507 JUMP JUMPDEST DUP3 ADD SWAP2 SWAP1 PUSH1 0x0 MSTORE PUSH1 0x20 PUSH1 0x0 KECCAK256 SWAP1 JUMPDEST DUP2 SLOAD DUP2 MSTORE SWAP1 PUSH1 0x1 ADD SWAP1 PUSH1 0x20 ADD DUP1 DUP4 GT PUSH2 0x4EA JUMPI DUP3 SWAP1 SUB PUSH1 0x1F AND DUP3 ADD SWAP2 JUMPDEST POP POP POP POP POP DUP2 MSTORE PUSH1 0x20 ADD PUSH1 0x3 DUP3 ADD DUP1 SLOAD PUSH2 0x520 SWAP1 PUSH2 0xD78 JUMP JUMPDEST DUP1 PUSH1 0x1F ADD PUSH1 0x20 DUP1 SWAP2 DIV MUL PUSH1 0x20 ADD PUSH1 0x40 MLOAD SWAP1 DUP2 ADD PUSH1 0x40 MSTORE DUP1 SWAP3 SWAP2 SWAP1 DUP2 DUP2 MSTORE PUSH1 0x20 ADD DUP3 DUP1 SLOAD PUSH2 0x54C SWAP1 PUSH2 0xD78 JUMP JUMPDEST DUP1 ISZERO PUSH2 0x599 JUMPI DUP1 PUSH1 0x1F LT PUSH2 0x56E JUMPI PUSH2 0x100 DUP1 DUP4 SLOAD DIV MUL DUP4 MSTORE SWAP2 PUSH1 0x20 ADD SWAP2 PUSH2 0x599 JUMP JUMPDEST DUP3 ADD SWAP2 SWAP1 PUSH1 0x0 MSTORE PUSH1 0x20 PUSH1 0x0 KECCAK256 SWAP1 JUMPDEST DUP2 SLOAD DUP2 MSTORE SWAP1 PUSH1 0x1 ADD SWAP1 PUSH1 0x20 ADD DUP1 DUP4 GT PUSH2 0x57C JUMPI DUP3 SWAP1 SUB PUSH1 0x1F AND DUP3 ADD SWAP2 JUMPDEST POP POP POP POP POP DUP2 MSTORE PUSH1 0x20 ADD PUSH1 0x4 DUP3 ADD PUSH1 0x0 SWAP1 SLOAD SWAP1 PUSH2 0x100 EXP SWAP1 DIV PUSH1 0xFF AND ISZERO ISZERO ISZERO ISZERO DUP2 MSTORE POP POP SWAP1 POP PUSH1 0x1 PUSH1 0x2 PUSH1 0x0 DUP9 DUP2 MSTORE PUSH1 0x20 ADD SWAP1 DUP2 MSTORE PUSH1 0x20 ADD PUSH1 0x0 KECCAK256 PUSH1 0x0 PUSH2 0x100 EXP DUP2 SLOAD DUP2 PUSH1 0xFF MUL NOT AND SWAP1 DUP4 ISZERO ISZERO MUL OR SWAP1 SSTORE POP DUP6 PUSH32 0xB233C6BBAEB709E46D39BFC4716D6BC71B577450E6ECBE11B02BB458FC9C9EBB DUP3 PUSH1 0x0 ADD MLOAD DUP4 PUSH1 0x20 ADD MLOAD DUP5 PUSH1 0x40 ADD MLOAD DUP6 PUSH1 0x60 ADD MLOAD PUSH1 0x40 MLOAD PUSH2 0x631 SWAP5 SWAP4 SWAP3 SWAP2 SWAP1 PUSH2 0x10FF JUMP JUMPDEST PUSH1 0x40 MLOAD DUP1 SWAP2 SUB SWAP1 LOG2 POP POP POP POP POP POP JUMP JUMPDEST PUSH1 0x0 PUSH1 0x2 PUSH1 0x0 DUP4 DUP2 MSTORE PUSH1 0x20 ADD SWAP1 DUP2 MSTORE PUSH1 0x20 ADD PUSH1 0x0 KECCAK256 PUSH1 0x0 SWAP1 SLOAD SWAP1 PUSH2 0x100 EXP SWAP1 DIV PUSH1 0xFF AND SWAP1 POP SWAP2 SWAP1 POP JUMP JUMPDEST PUSH1 0x2 PUSH1 0x20 MSTORE DUP1 PUSH1 0x0 MSTORE PUSH1 0x40 PUSH1 0x0 KECCAK256 PUSH1 0x0 SWAP2 POP SLOAD SWAP1 PUSH2 0x100 EXP SWAP1 DIV PUSH1 0xFF AND DUP2 JUMP JUMPDEST PUSH1 0x1 DUP2 PUSH1 0x0 ADD PUSH1 0x0 DUP3 DUP3 SLOAD ADD SWAP3 POP POP DUP2 SWAP1 SSTORE POP POP JUMP JUMPDEST PUSH1 0x0 DUP2 PUSH1 0x0 ADD SLOAD SWAP1 POP SWAP2 SWAP1 POP JUMP JUMPDEST PUSH1 0x0 PUSH1 0x40 MLOAD SWAP1 POP SWAP1 JUMP JUMPDEST PUSH1 0x0 DUP1 REVERT JUMPDEST PUSH1 0x0 DUP1 REVERT JUMPDEST PUSH1 0x0 DUP2 SWAP1 POP SWAP2 SWAP1 POP JUMP JUMPDEST PUSH2 0x6D6 DUP2 PUSH2 0x6C3 JUMP JUMPDEST DUP2 EQ PUSH2 0x6E1 JUMPI PUSH1 0x0 DUP1 REVERT JUMPDEST POP JUMP JUMPDEST PUSH1 0x0 DUP2 CALLDATALOAD SWAP1 POP PUSH2 0x6F3 DUP2 PUSH2 0x6CD JUMP JUMPDEST SWAP3 SWAP2 POP POP JUMP JUMPDEST PUSH1 0x0 PUSH1 0x20 DUP3 DUP5 SUB SLT ISZERO PUSH2 0x70F JUMPI PUSH2 0x70E PUSH2 0x6B9 JUMP JUMPDEST JUMPDEST PUSH1 0x0 PUSH2 0x71D DUP5 DUP3 DUP6 ADD PUSH2 0x6E4 JUMP JUMPDEST SWAP2 POP POP SWAP3 SWAP2 POP POP JUMP JUMPDEST PUSH2 0x72F DUP2 PUSH2 0x6C3 JUMP JUMPDEST DUP3 MSTORE POP POP JUMP JUMPDEST PUSH1 0x0 DUP2 MLOAD SWAP1 POP SWAP2 SWAP1 POP JUMP JUMPDEST PUSH1 0x0 DUP3 DUP3 MSTORE PUSH1 0x20 DUP3 ADD SWAP1 POP SWAP3 SWAP2 POP POP JUMP JUMPDEST PUSH1 0x0 JUMPDEST DUP4 DUP2 LT ISZERO PUSH2 0x76F JUMPI DUP1 DUP3 ADD MLOAD DUP2 DUP5 ADD MSTORE PUSH1 0x20 DUP2 ADD SWAP1 POP PUSH2 0x754 JUMP JUMPDEST PUSH1 0x0 DUP5 DUP5 ADD MSTORE POP POP POP POP JUMP JUMPDEST PUSH1 0x0 PUSH1 0x1F NOT PUSH1 0x1F DUP4 ADD AND SWAP1 POP SWAP2 SWAP1 POP JUMP JUMPDEST PUSH1 0x0 PUSH2 0x797 DUP3 PUSH2 0x735 JUMP JUMPDEST PUSH2 0x7A1 DUP2 DUP6 PUSH2 0x740 JUMP JUMPDEST SWAP4 POP PUSH2 0x7B1 DUP2 DUP6 PUSH1 0x20 DUP7 ADD PUSH2 0x751 JUMP JUMPDEST PUSH2 0x7BA DUP2 PUSH2 0x77B JUMP JUMPDEST DUP5 ADD SWAP2 POP POP SWAP3 SWAP2 POP POP JUMP JUMPDEST PUSH1 0x0 DUP2 ISZERO ISZERO SWAP1 POP SWAP2 SWAP1 POP JUMP JUMPDEST PUSH2 0x7DA DUP2 PUSH2 0x7C5 JUMP JUMPDEST DUP3 MSTORE POP POP JUMP JUMPDEST PUSH1 0x0 PUSH1 0xA0 DUP3 ADD SWAP1 POP PUSH2 0x7F5 PUSH1 0x0 DUP4 ADD DUP9 PUSH2 0x726 JUMP JUMPDEST PUSH2 0x802 PUSH1 0x20 DUP4 ADD DUP8 PUSH2 0x726 JUMP JUMPDEST DUP2 DUP2 SUB PUSH1 0x40 DUP4 ADD MSTORE PUSH2 0x814 DUP2 DUP7 PUSH2 0x78C JUMP JUMPDEST SWAP1 POP DUP2 DUP2 SUB PUSH1 0x60 DUP4 ADD MSTORE PUSH2 0x828 DUP2 DUP6 PUSH2 0x78C JUMP JUMPDEST SWAP1 POP PUSH2 0x837 PUSH1 0x80 DUP4 ADD DUP5 PUSH2 0x7D1 JUMP JUMPDEST SWAP7 SWAP6 POP POP POP POP POP POP JUMP JUMPDEST PUSH1 0x0 DUP1 REVERT JUMPDEST PUSH1 0x0 DUP1 REVERT JUMPDEST PUSH32 0x4E487B7100000000000000000000000000000000000000000000000000000000 PUSH1 0x0 MSTORE PUSH1 0x41 PUSH1 0x4 MSTORE PUSH1 0x24 PUSH1 0x0 REVERT JUMPDEST PUSH2 0x883 DUP3 PUSH2 0x77B JUMP JUMPDEST DUP2 ADD DUP2 DUP2 LT PUSH8 0xFFFFFFFFFFFFFFFF DUP3 GT OR ISZERO PUSH2 0x8A2 JUMPI PUSH2 0x8A1 PUSH2 0x84B JUMP JUMPDEST JUMPDEST DUP1 PUSH1 0x40 MSTORE POP POP POP JUMP JUMPDEST PUSH1 0x0 PUSH2 0x8B5 PUSH2 0x6AF JUMP JUMPDEST SWAP1 POP PUSH2 0x8C1 DUP3 DUP3 PUSH2 0x87A JUMP JUMPDEST SWAP2 SWAP1 POP JUMP JUMPDEST PUSH1 0x0 PUSH8 0xFFFFFFFFFFFFFFFF DUP3 GT ISZERO PUSH2 0x8E1 JUMPI PUSH2 0x8E0 PUSH2 0x84B JUMP JUMPDEST JUMPDEST PUSH2 0x8EA DUP3 PUSH2 0x77B JUMP JUMPDEST SWAP1 POP PUSH1 0x20 DUP2 ADD SWAP1 POP SWAP2 SWAP1 POP JUMP JUMPDEST DUP3 DUP2 DUP4 CALLDATACOPY PUSH1 0x0 DUP4 DUP4 ADD MSTORE POP POP POP JUMP JUMPDEST PUSH1 0x0 PUSH2 0x919 PUSH2 0x914 DUP5 PUSH2 0x8C6 JUMP JUMPDEST PUSH2 0x8AB JUMP JUMPDEST SWAP1 POP DUP3 DUP2 MSTORE PUSH1 0x20 DUP2 ADD DUP5 DUP5 DUP5 ADD GT ISZERO PUSH2 0x935 JUMPI PUSH2 0x934 PUSH2 0x846 JUMP JUMPDEST JUMPDEST PUSH2 0x940 DUP5 DUP3 DUP6 PUSH2 0x8F7 JUMP JUMPDEST POP SWAP4 SWAP3 POP POP POP JUMP JUMPDEST PUSH1 0x0 DUP3 PUSH1 0x1F DUP4 ADD SLT PUSH2 0x95D JUMPI PUSH2 0x95C PUSH2 0x841 JUMP JUMPDEST JUMPDEST DUP2 CALLDATALOAD PUSH2 0x96D DUP5 DUP3 PUSH1 0x20 DUP7 ADD PUSH2 0x906 JUMP JUMPDEST SWAP2 POP POP SWAP3 SWAP2 POP POP JUMP JUMPDEST PUSH1 0x0 DUP1 PUSH1 0x0 DUP1 PUSH1 0x80 DUP6 DUP8 SUB SLT ISZERO PUSH2 0x990 JUMPI PUSH2 0x98F PUSH2 0x6B9 JUMP JUMPDEST JUMPDEST PUSH1 0x0 PUSH2 0x99E DUP8 DUP3 DUP9 ADD PUSH2 0x6E4 JUMP JUMPDEST SWAP5 POP POP PUSH1 0x20 PUSH2 0x9AF DUP8 DUP3 DUP9 ADD PUSH2 0x6E4 JUMP JUMPDEST SWAP4 POP POP PUSH1 0x40 DUP6 ADD CALLDATALOAD PUSH8 0xFFFFFFFFFFFFFFFF DUP2 GT ISZERO PUSH2 0x9D0 JUMPI PUSH2 0x9CF PUSH2 0x6BE JUMP JUMPDEST JUMPDEST PUSH2 0x9DC DUP8 DUP3 DUP9 ADD PUSH2 0x948 JUMP JUMPDEST SWAP3 POP POP PUSH1 0x60 DUP6 ADD CALLDATALOAD PUSH8 0xFFFFFFFFFFFFFFFF DUP2 GT ISZERO PUSH2 0x9FD JUMPI PUSH2 0x9FC PUSH2 0x6BE JUMP JUMPDEST JUMPDEST PUSH2 0xA09 DUP8 DUP3 DUP9 ADD PUSH2 0x948 JUMP JUMPDEST SWAP2 POP POP SWAP3 SWAP6 SWAP2 SWAP5 POP SWAP3 POP JUMP JUMPDEST PUSH1 0x0 PUSH1 0x20 DUP3 ADD SWAP1 POP PUSH2 0xA2A PUSH1 0x0 DUP4 ADD DUP5 PUSH2 0x726 JUMP JUMPDEST SWAP3 SWAP2 POP POP JUMP JUMPDEST PUSH1 0x0 PUSH8 0xFFFFFFFFFFFFFFFF DUP3 GT ISZERO PUSH2 0xA4B JUMPI PUSH2 0xA4A PUSH2 0x84B JUMP JUMPDEST JUMPDEST PUSH1 0x20 DUP3 MUL SWAP1 POP SWAP2 SWAP1 POP JUMP JUMPDEST PUSH1 0x0 DUP1 REVERT JUMPDEST PUSH1 0x0 PUSH2 0xA6E PUSH2 0xA69 DUP5 PUSH2 0xA30 JUMP JUMPDEST PUSH2 0x8AB JUMP JUMPDEST SWAP1 POP DUP1 PUSH1 0x20 DUP5 MUL DUP4 ADD DUP6 DUP2 GT ISZERO PUSH2 0xA88 JUMPI PUSH2 0xA87 PUSH2 0xA56 JUMP JUMPDEST JUMPDEST DUP4 JUMPDEST DUP2 DUP2 LT ISZERO PUSH2 0xAB1 JUMPI DUP1 PUSH2 0xA9D DUP9 DUP3 PUSH2 0x6E4 JUMP JUMPDEST DUP5 MSTORE PUSH1 0x20 DUP5 ADD SWAP4 POP POP PUSH1 0x20 DUP2 ADD SWAP1 POP PUSH2 0xA8A JUMP JUMPDEST POP POP POP SWAP4 SWAP3 POP POP POP JUMP JUMPDEST PUSH1 0x0 DUP3 PUSH1 0x1F DUP4 ADD SLT PUSH2 0xAD0 JUMPI PUSH2 0xACF PUSH2 0x841 JUMP JUMPDEST JUMPDEST PUSH1 0x2 PUSH2 0xADD DUP5 DUP3 DUP6 PUSH2 0xA5B JUMP JUMPDEST SWAP2 POP POP SWAP3 SWAP2 POP POP JUMP JUMPDEST PUSH1 0x0 PUSH8 0xFFFFFFFFFFFFFFFF DUP3 GT ISZERO PUSH2 0xB01 JUMPI PUSH2 0xB00 PUSH2 0x84B JUMP JUMPDEST JUMPDEST PUSH1 0x20 DUP3 MUL SWAP1 POP SWAP2 SWAP1 POP JUMP JUMPDEST PUSH1 0x0 PUSH2 0xB1F PUSH2 0xB1A DUP5 PUSH2 0xAE6 JUMP JUMPDEST PUSH2 0x8AB JUMP JUMPDEST SWAP1 POP DUP1 PUSH1 0x40 DUP5 MUL DUP4 ADD DUP6 DUP2 GT ISZERO PUSH2 0xB39 JUMPI PUSH2 0xB38 PUSH2 0xA56 JUMP JUMPDEST JUMPDEST DUP4 JUMPDEST DUP2 DUP2 LT ISZERO PUSH2 0xB62 JUMPI DUP1 PUSH2 0xB4E DUP9 DUP3 PUSH2 0xABB JUMP JUMPDEST DUP5 MSTORE PUSH1 0x20 DUP5 ADD SWAP4 POP POP PUSH1 0x40 DUP2 ADD SWAP1 POP PUSH2 0xB3B JUMP JUMPDEST POP POP POP SWAP4 SWAP3 POP POP POP JUMP JUMPDEST PUSH1 0x0 DUP3 PUSH1 0x1F DUP4 ADD SLT PUSH2 0xB81 JUMPI PUSH2 0xB80 PUSH2 0x841 JUMP JUMPDEST JUMPDEST PUSH1 0x2 PUSH2 0xB8E DUP5 DUP3 DUP6 PUSH2 0xB0C JUMP JUMPDEST SWAP2 POP POP SWAP3 SWAP2 POP POP JUMP JUMPDEST PUSH1 0x0 PUSH8 0xFFFFFFFFFFFFFFFF DUP3 GT ISZERO PUSH2 0xBB2 JUMPI PUSH2 0xBB1 PUSH2 0x84B JUMP JUMPDEST JUMPDEST PUSH1 0x20 DUP3 MUL SWAP1 POP SWAP2 SWAP1 POP JUMP JUMPDEST PUSH1 0x0 PUSH2 0xBD0 PUSH2 0xBCB DUP5 PUSH2 0xB97 JUMP JUMPDEST PUSH2 0x8AB JUMP JUMPDEST SWAP1 POP DUP1 PUSH1 0x20 DUP5 MUL DUP4 ADD DUP6 DUP2 GT ISZERO PUSH2 0xBEA JUMPI PUSH2 0xBE9 PUSH2 0xA56 JUMP JUMPDEST JUMPDEST DUP4 JUMPDEST DUP2 DUP2 LT ISZERO PUSH2 0xC13 JUMPI DUP1 PUSH2 0xBFF DUP9 DUP3 PUSH2 0x6E4 JUMP JUMPDEST DUP5 MSTORE PUSH1 0x20 DUP5 ADD SWAP4 POP POP PUSH1 0x20 DUP2 ADD SWAP1 POP PUSH2 0xBEC JUMP JUMPDEST POP POP POP SWAP4 SWAP3 POP POP POP JUMP JUMPDEST PUSH1 0x0 DUP3 PUSH1 0x1F DUP4 ADD SLT PUSH2 0xC32 JUMPI PUSH2 0xC31 PUSH2 0x841 JUMP JUMPDEST JUMPDEST PUSH1 0x1 PUSH2 0xC3F DUP5 DUP3 DUP6 PUSH2 0xBBD JUMP JUMPDEST SWAP2 POP POP SWAP3 SWAP2 POP POP JUMP JUMPDEST PUSH1 0x0 DUP1 PUSH1 0x0 DUP1 PUSH2 0x120 DUP6 DUP8 SUB SLT ISZERO PUSH2 0xC63 JUMPI PUSH2 0xC62 PUSH2 0x6B9 JUMP JUMPDEST JUMPDEST PUSH1 0x0 PUSH2 0xC71 DUP8 DUP3 DUP9 ADD PUSH2 0xABB JUMP JUMPDEST SWAP5 POP POP PUSH1 0x40 PUSH2 0xC82 DUP8 DUP3 DUP9 ADD PUSH2 0xB6C JUMP JUMPDEST SWAP4 POP POP PUSH1 0xC0 PUSH2 0xC93 DUP8 DUP3 DUP9 ADD PUSH2 0xABB JUMP JUMPDEST SWAP3 POP POP PUSH2 0x100 PUSH2 0xCA5 DUP8 DUP3 DUP9 ADD PUSH2 0xC1D JUMP JUMPDEST SWAP2 POP POP SWAP3 SWAP6 SWAP2 SWAP5 POP SWAP3 POP JUMP JUMPDEST PUSH1 0x0 PUSH1 0x20 DUP3 ADD SWAP1 POP PUSH2 0xCC6 PUSH1 0x0 DUP4 ADD DUP5 PUSH2 0x7D1 JUMP JUMPDEST SWAP3 SWAP2 POP POP JUMP JUMPDEST PUSH1 0x0 DUP1 PUSH1 0x0 DUP1 PUSH1 0x0 PUSH2 0x140 DUP7 DUP9 SUB SLT ISZERO PUSH2 0xCE9 JUMPI PUSH2 0xCE8 PUSH2 0x6B9 JUMP JUMPDEST JUMPDEST PUSH1 0x0 PUSH2 0xCF7 DUP9 DUP3 DUP10 ADD PUSH2 0x6E4 JUMP JUMPDEST SWAP6 POP POP PUSH1 0x20 PUSH2 0xD08 DUP9 DUP3 DUP10 ADD PUSH2 0xABB JUMP JUMPDEST SWAP5 POP POP PUSH1 0x60 PUSH2 0xD19 DUP9 DUP3 DUP10 ADD PUSH2 0xB6C JUMP JUMPDEST SWAP4 POP POP PUSH1 0xE0 PUSH2 0xD2A DUP9 DUP3 DUP10 ADD PUSH2 0xABB JUMP JUMPDEST SWAP3 POP POP PUSH2 0x120 PUSH2 0xD3C DUP9 DUP3 DUP10 ADD PUSH2 0xC1D JUMP JUMPDEST SWAP2 POP POP SWAP3 SWAP6 POP SWAP3 SWAP6 SWAP1 SWAP4 POP JUMP JUMPDEST PUSH32 0x4E487B7100000000000000000000000000000000000000000000000000000000 PUSH1 0x0 MSTORE PUSH1 0x22 PUSH1 0x4 MSTORE PUSH1 0x24 PUSH1 0x0 REVERT JUMPDEST PUSH1 0x0 PUSH1 0x2 DUP3 DIV SWAP1 POP PUSH1 0x1 DUP3 AND DUP1 PUSH2 0xD90 JUMPI PUSH1 0x7F DUP3 AND SWAP2 POP JUMPDEST PUSH1 0x20 DUP3 LT DUP2 SUB PUSH2 0xDA3 JUMPI PUSH2 0xDA2 PUSH2 0xD49 JUMP JUMPDEST JUMPDEST POP SWAP2 SWAP1 POP JUMP JUMPDEST PUSH1 0x0 DUP2 SWAP1 POP DUP2 PUSH1 0x0 MSTORE PUSH1 0x20 PUSH1 0x0 KECCAK256 SWAP1 POP SWAP2 SWAP1 POP JUMP JUMPDEST PUSH1 0x0 PUSH1 0x20 PUSH1 0x1F DUP4 ADD DIV SWAP1 POP SWAP2 SWAP1 POP JUMP JUMPDEST PUSH1 0x0 DUP3 DUP3 SHL SWAP1 POP SWAP3 SWAP2 POP POP JUMP JUMPDEST PUSH1 0x0 PUSH1 0x8 DUP4 MUL PUSH2 0xE0B PUSH32 0xFFFFFFFFFFFFFFFFFFFFFFFFFFFFFFFFFFFFFFFFFFFFFFFFFFFFFFFFFFFFFFFF DUP3 PUSH2 0xDCE JUMP JUMPDEST PUSH2 0xE15 DUP7 DUP4 PUSH2 0xDCE JUMP JUMPDEST SWAP6 POP DUP1 NOT DUP5 AND SWAP4 POP DUP1 DUP7 AND DUP5 OR SWAP3 POP POP POP SWAP4 SWAP3 POP POP POP JUMP JUMPDEST PUSH1 0x0 DUP2 SWAP1 POP SWAP2 SWAP1 POP JUMP JUMPDEST PUSH1 0x0 PUSH2 0xE52 PUSH2 0xE4D PUSH2 0xE48 DUP5 PUSH2 0x6C3 JUMP JUMPDEST PUSH2 0xE2D JUMP JUMPDEST PUSH2 0x6C3 JUMP JUMPDEST SWAP1 POP SWAP2 SWAP1 POP JUMP JUMPDEST PUSH1 0x0 DUP2 SWAP1 POP SWAP2 SWAP1 POP JUMP JUMPDEST PUSH2 0xE6C DUP4 PUSH2 0xE37 JUMP JUMPDEST PUSH2 0xE80 PUSH2 0xE78 DUP3 PUSH2 0xE59 JUMP JUMPDEST DUP5 DUP5 SLOAD PUSH2 0xDDB JUMP JUMPDEST DUP3 SSTORE POP POP POP POP JUMP JUMPDEST PUSH1 0x0 SWAP1 JUMP JUMPDEST PUSH2 0xE95 PUSH2 0xE88 JUMP JUMPDEST PUSH2 0xEA0 DUP2 DUP5 DUP5 PUSH2 0xE63 JUMP JUMPDEST POP POP POP JUMP JUMPDEST JUMPDEST DUP2 DUP2 LT ISZERO PUSH2 0xEC4 JUMPI PUSH2 0xEB9 PUSH1 0x0 DUP3 PUSH2 0xE8D JUMP JUMPDEST PUSH1 0x1 DUP2 ADD SWAP1 POP PUSH2 0xEA6 JUMP JUMPDEST POP POP JUMP JUMPDEST PUSH1 0x1F DUP3 GT ISZERO PUSH2 0xF09 JUMPI PUSH2 0xEDA DUP2 PUSH2 0xDA9 JUMP JUMPDEST PUSH2 0xEE3 DUP5 PUSH2 0xDBE JUMP JUMPDEST DUP2 ADD PUSH1 0x20 DUP6 LT ISZERO PUSH2 0xEF2 JUMPI DUP2 SWAP1 POP JUMPDEST PUSH2 0xF06 PUSH2 0xEFE DUP6 PUSH2 0xDBE JUMP JUMPDEST DUP4 ADD DUP3 PUSH2 0xEA5 JUMP JUMPDEST POP POP JUMPDEST POP POP POP JUMP JUMPDEST PUSH1 0x0 DUP3 DUP3 SHR SWAP1 POP SWAP3 SWAP2 POP POP JUMP JUMPDEST PUSH1 0x0 PUSH2 0xF2C PUSH1 0x0 NOT DUP5 PUSH1 0x8 MUL PUSH2 0xF0E JUMP JUMPDEST NOT DUP1 DUP4 AND SWAP2 POP POP SWAP3 SWAP2 POP POP JUMP JUMPDEST PUSH1 0x0 PUSH2 0xF45 DUP4 DUP4 PUSH2 0xF1B JUMP JUMPDEST SWAP2 POP DUP3 PUSH1 0x2 MUL DUP3 OR SWAP1 POP SWAP3 SWAP2 POP POP JUMP JUMPDEST PUSH2 0xF5E DUP3 PUSH2 0x735 JUMP JUMPDEST PUSH8 0xFFFFFFFFFFFFFFFF DUP2 GT ISZERO PUSH2 0xF77 JUMPI PUSH2 0xF76 PUSH2 0x84B JUMP JUMPDEST JUMPDEST PUSH2 0xF81 DUP3 SLOAD PUSH2 0xD78 JUMP JUMPDEST PUSH2 0xF8C DUP3 DUP3 DUP6 PUSH2 0xEC8 JUMP JUMPDEST PUSH1 0x0 PUSH1 0x20 SWAP1 POP PUSH1 0x1F DUP4 GT PUSH1 0x1 DUP2 EQ PUSH2 0xFBF JUMPI PUSH1 0x0 DUP5 ISZERO PUSH2 0xFAD JUMPI DUP3 DUP8 ADD MLOAD SWAP1 POP JUMPDEST PUSH2 0xFB7 DUP6 DUP3 PUSH2 0xF39 JUMP JUMPDEST DUP7 SSTORE POP PUSH2 0x101F JUMP JUMPDEST PUSH1 0x1F NOT DUP5 AND PUSH2 0xFCD DUP7 PUSH2 0xDA9 JUMP JUMPDEST PUSH1 0x0 JUMPDEST DUP3 DUP2 LT ISZERO PUSH2 0xFF5 JUMPI DUP5 DUP10 ADD MLOAD DUP3 SSTORE PUSH1 0x1 DUP3 ADD SWAP2 POP PUSH1 0x20 DUP6 ADD SWAP5 POP PUSH1 0x20 DUP2 ADD SWAP1 POP PUSH2 0xFD0 JUMP JUMPDEST DUP7 DUP4 LT ISZERO PUSH2 0x1012 JUMPI DUP5 DUP10 ADD MLOAD PUSH2 0x100E PUSH1 0x1F DUP10 AND DUP3 PUSH2 0xF1B JUMP JUMPDEST DUP4 SSTORE POP JUMPDEST PUSH1 0x1 PUSH1 0x2 DUP9 MUL ADD DUP9 SSTORE POP POP POP JUMPDEST POP POP POP POP POP POP JUMP JUMPDEST PUSH32 0x4469706C6F6D6120616C72656164792076657269666965640000000000000000 PUSH1 0x0 DUP3 ADD MSTORE POP JUMP JUMPDEST PUSH1 0x0 PUSH2 0x105D PUSH1 0x18 DUP4 PUSH2 0x740 JUMP JUMPDEST SWAP2 POP PUSH2 0x1068 DUP3 PUSH2 0x1027 JUMP JUMPDEST PUSH1 0x20 DUP3 ADD SWAP1 POP SWAP2 SWAP1 POP JUMP JUMPDEST PUSH1 0x0 PUSH1 0x20 DUP3 ADD SWAP1 POP DUP2 DUP2 SUB PUSH1 0x0 DUP4 ADD MSTORE PUSH2 0x108C DUP2 PUSH2 0x1050 JUMP JUMPDEST SWAP1 POP SWAP2 SWAP1 POP JUMP JUMPDEST PUSH32 0x496E76616C69642070726F6F6600000000000000000000000000000000000000 PUSH1 0x0 DUP3 ADD MSTORE POP JUMP JUMPDEST PUSH1 0x0 PUSH2 0x10C9 PUSH1 0xD DUP4 PUSH2 0x740 JUMP JUMPDEST SWAP2 POP PUSH2 0x10D4 DUP3 PUSH2 0x1093 JUMP JUMPDEST PUSH1 0x20 DUP3 ADD SWAP1 POP SWAP2 SWAP1 POP JUMP JUMPDEST PUSH1 0x0 PUSH1 0x20 DUP3 ADD SWAP1 POP DUP2 DUP2 SUB PUSH1 0x0 DUP4 ADD MSTORE PUSH2 0x10F8 DUP2 PUSH2 0x10BC JUMP JUMPDEST SWAP1 POP SWAP2 SWAP1 POP JUMP JUMPDEST PUSH1 0x0 PUSH1 0x80 DUP3 ADD SWAP1 POP PUSH2 0x1114 PUSH1 0x0 DUP4 ADD DUP8 PUSH2 0x726 JUMP JUMPDEST PUSH2 0x1121 PUSH1 0x20 DUP4 ADD DUP7 PUSH2 0x726 JUMP JUMPDEST DUP2 DUP2 SUB PUSH1 0x40 DUP4 ADD MSTORE PUSH2 0x1133 DUP2 DUP6 PUSH2 0x78C JUMP JUMPDEST SWAP1 POP DUP2 DUP2 SUB PUSH1 0x60 DUP4 ADD MSTORE PUSH2 0x1147 DUP2 DUP5 PUSH2 0x78C JUMP JUMPDEST SWAP1 POP SWAP6 SWAP5 POP POP POP POP POP JUMP INVALID LOG2 PUSH5 0x6970667358 0x22 SLT KECCAK256 LT 0xC SHL DUP5 0x1E 0xEF 0xC5 0x4E 0x29 0xF6 0x2D 0xB8 SWAP1 LOG3 ADD PUSH9 0x23E239719813EDC735 MLOAD PUSH31 0xC6D3ABF1B464736F6C63430008130033000000000000000000000000000000 "},"methodIdentifiers":{"addDiploma(uint256,uint256,string,string)":"373f08d6","diplomas(uint256)":"35dfc1c3","isDiplomaVerified(uint256)":"8e1a2593","verifiedDiplomas(uint256)":"efff8d6a","verifyDiploma(uint256,uint256[2],uint256[2][2],uint256[2],uint256[1])":"764825d1","verifyProof(uint256[2],uint256[2][2],uint256[2],uint256[1])":"43753b4d"}}}}}