{
  "_format": "hh-sol-artifact-1",
  "contractName": "DiplomaManager",
  "sourceName": "contracts/DiplomaManager.sol",
  "abi": [
    {
      "inputs": [
        {
          "internalType": "address",
          "name": "_verifier",
          "type": "address"
        }
      ],
      "stateMutability": "nonpayable",
      "type": "constructor"
    },
    {
      "anonymous": false,
      "inputs": [
        {
          "indexed": false,
          "internalType": "uint256",
          "name": "root",
          "type": "uint256"
        }
      ],
      "name": "DiplomaVerified",
      "type": "event"
    },
    {
      "anonymous": false,
      "inputs": [
        {
          "indexed": false,
          "internalType": "uint256",
          "name": "root",
          "type": "uint256"
        }
      ],
      "name": "RootAdded",
      "type": "event"
    },
    {
      "inputs": [
        {
          "internalType": "uint256",
          "name": "_root",
          "type": "uint256"
        }
      ],
      "name": "addRoot",
      "outputs": [],
      "stateMutability": "nonpayable",
      "type": "function"
    },
    {
      "inputs": [
        {
          "internalType": "uint256",
          "name": "_root",
          "type": "uint256"
        }
      ],
      "name": "isValidRoot",
      "outputs": [
        {
          "internalType": "bool",
          "name": "",
          "type": "bool"
        }
      ],
      "stateMutability": "view",
      "type": "function"
    },
    {
      "inputs": [
        {
          "internalType": "uint256",
          "name": "",
          "type": "uint256"
        }
      ],
      "name": "validRoots",
      "outputs": [
        {
          "internalType": "bool",
          "name": "",
          "type": "bool"
        }
      ],
      "stateMutability": "view",
      "type": "function"
    },
    {
      "inputs": [],
      "name": "verifier",
      "outputs": [
        {
          "internalType": "contract Groth16Verifier",
          "name": "",
          "type": "address"
        }
      ],
      "stateMutability": "view",
      "type": "function"
    },
    {
      "inputs": [
        {
          "internalType": "uint256[2]",
          "name": "a",
          "type": "uint256[2]"
        },
        {
          "internalType": "uint256[2][2]",
          "name": "b",
          "type": "uint256[2][2]"
        },
        {
          "internalType": "uint256[2]",
          "name": "c",
          "type": "uint256[2]"
        },
        {
          "internalType": "uint256[1]",
          "name": "input",
          "type": "uint256[1]"
        }
      ],
      "name": "verifyDiploma",
      "outputs": [
        {
          "internalType": "bool",
          "name": "",
          "type": "bool"
        }
      ],
      "stateMutability": "nonpayable",
      "type": "function"
    }
  ],
  "bytecode": "0x60806040523480156200001157600080fd5b506040516200145938038062001459833981810160405281019062000037919062000243565b806000806101000a81548173ffffffffffffffffffffffffffffffffffffffff021916908373ffffffffffffffffffffffffffffffffffffffff160217905550620000c2604051806060016040528060268152602001620014336026913960008054906101000a900473ffffffffffffffffffffffffffffffffffffffff16620000c960201b60201c565b5062000383565b6200016b8282604051602401620000e292919062000320565b6040516020818303038152906040527f319af333000000000000000000000000000000000000000000000000000000007bffffffffffffffffffffffffffffffffffffffffffffffffffffffff19166020820180517bffffffffffffffffffffffffffffffffffffffffffffffffffffffff83818316178352505050506200016f60201b60201c565b5050565b6200019581620001906200019860201b620004c717620001b960201b60201c565b60201c565b50565b60006a636f6e736f6c652e6c6f679050600080835160208501845afa505050565b620001cd60201b620006de17819050919050565b620001d762000354565b565b600080fd5b600073ffffffffffffffffffffffffffffffffffffffff82169050919050565b60006200020b82620001de565b9050919050565b6200021d81620001fe565b81146200022957600080fd5b50565b6000815190506200023d8162000212565b92915050565b6000602082840312156200025c576200025b620001d9565b5b60006200026c848285016200022c565b91505092915050565b600081519050919050565b600082825260208201905092915050565b60005b83811015620002b157808201518184015260208101905062000294565b60008484015250505050565b6000601f19601f8301169050919050565b6000620002db8262000275565b620002e7818562000280565b9350620002f981856020860162000291565b6200030481620002bd565b840191505092915050565b6200031a81620001fe565b82525050565b600060408201905081810360008301526200033c8185620002ce565b90506200034d60208301846200030f565b9392505050565b7f4e487b7100000000000000000000000000000000000000000000000000000000600052605160045260246000fd5b6110a080620003936000396000f3fe608060405234801561001057600080fd5b50600436106100575760003560e01c80632b7ac3f31461005c5780632cdabbce1461007a578063674f4d68146100aa578063aa2d61db146100da578063e8aaf83e1461010a575b600080fd5b610064610126565b6040516100719190610767565b60405180910390f35b610094600480360381019061008f91906107c7565b61014a565b6040516100a1919061080f565b60405180910390f35b6100c460048036038101906100bf9190610ad3565b610174565b6040516100d1919061080f565b60405180910390f35b6100f460048036038101906100ef91906107c7565b610403565b604051610101919061080f565b60405180910390f35b610124600480360381019061011f91906107c7565b610423565b005b60008054906101000a900473ffffffffffffffffffffffffffffffffffffffff1681565b60006001600083815260200190815260200160002060009054906101000a900460ff169050919050565b60006101cd6040518060400160405280601c81526020017f566572696679696e67206469706c6f6d61207769746820726f6f743a00000000815250836000600181106101c3576101c2610b3c565b5b60200201516104e8565b60016000836000600181106101e5576101e4610b3c565b5b6020020151815260200190815260200160002060009054906101000a900460ff16610245576040517f08c379a000000000000000000000000000000000000000000000000000000000815260040161023c90610bc8565b60405180910390fd5b6102836040518060400160405280600d81526020017f526f6f742069732076616c696400000000000000000000000000000000000000815250610584565b60008060009054906101000a900473ffffffffffffffffffffffffffffffffffffffff1673ffffffffffffffffffffffffffffffffffffffff166343753b4d878787876040518563ffffffff1660e01b81526004016102e59493929190610e15565b602060405180830381865afa158015610302573d6000803e3d6000fd5b505050506040513d601f19601f820116820180604052508101906103269190610e88565b90506103676040518060400160405280601a81526020017f50726f6f6620766572696669636174696f6e20726573756c743a0000000000008152508261061d565b806103a7576040517f08c379a000000000000000000000000000000000000000000000000000000000815260040161039e90610f01565b60405180910390fd5b7fce1652522d1a18f53ad62c906be9d96895b9e4407a253687c8bd1368a2b84a11836000600181106103dc576103db610b3c565b5b60200201516040516103ee9190610f30565b60405180910390a16001915050949350505050565b60016020528060005260406000206000915054906101000a900460ff1681565b600180600083815260200190815260200160002060006101000a81548160ff02191690831515021790555061048d6040518060400160405280600f81526020017f4164646564206e657720726f6f743a0000000000000000000000000000000000815250826104e8565b7ff9455e5b44defc549f73e539ddaae9802f5d9b8d18755c421d94c39c6e84e831816040516104bc9190610f30565b60405180910390a150565b60006a636f6e736f6c652e6c6f679050600080835160208501845afa505050565b61058082826040516024016104fe929190610fb9565b6040516020818303038152906040527fb60e72cc000000000000000000000000000000000000000000000000000000007bffffffffffffffffffffffffffffffffffffffffffffffffffffffff19166020820180517bffffffffffffffffffffffffffffffffffffffffffffffffffffffff83818316178352505050506106b9565b5050565b61061a816040516024016105989190610fe9565b6040516020818303038152906040527f41304fac000000000000000000000000000000000000000000000000000000007bffffffffffffffffffffffffffffffffffffffffffffffffffffffff19166020820180517bffffffffffffffffffffffffffffffffffffffffffffffffffffffff83818316178352505050506106b9565b50565b6106b5828260405160240161063392919061100b565b6040516020818303038152906040527fc3b55635000000000000000000000000000000000000000000000000000000007bffffffffffffffffffffffffffffffffffffffffffffffffffffffff19166020820180517bffffffffffffffffffffffffffffffffffffffffffffffffffffffff83818316178352505050506106b9565b5050565b6106d0816106c86104c76106d3565b63ffffffff16565b50565b6106de819050919050565b6106e661103b565b565b600073ffffffffffffffffffffffffffffffffffffffff82169050919050565b6000819050919050565b600061072d610728610723846106e8565b610708565b6106e8565b9050919050565b600061073f82610712565b9050919050565b600061075182610734565b9050919050565b61076181610746565b82525050565b600060208201905061077c6000830184610758565b92915050565b6000604051905090565b600080fd5b6000819050919050565b6107a481610791565b81146107af57600080fd5b50565b6000813590506107c18161079b565b92915050565b6000602082840312156107dd576107dc61078c565b5b60006107eb848285016107b2565b91505092915050565b60008115159050919050565b610809816107f4565b82525050565b60006020820190506108246000830184610800565b92915050565b600080fd5b6000601f19601f8301169050919050565b7f4e487b7100000000000000000000000000000000000000000000000000000000600052604160045260246000fd5b6108788261082f565b810181811067ffffffffffffffff8211171561089757610896610840565b5b80604052505050565b60006108aa610782565b90506108b6828261086f565b919050565b600067ffffffffffffffff8211156108d6576108d5610840565b5b602082029050919050565b600080fd5b60006108f96108f4846108bb565b6108a0565b90508060208402830185811115610913576109126108e1565b5b835b8181101561093c578061092888826107b2565b845260208401935050602081019050610915565b5050509392505050565b600082601f83011261095b5761095a61082a565b5b60026109688482856108e6565b91505092915050565b600067ffffffffffffffff82111561098c5761098b610840565b5b602082029050919050565b60006109aa6109a584610971565b6108a0565b905080604084028301858111156109c4576109c36108e1565b5b835b818110156109ed57806109d98882610946565b8452602084019350506040810190506109c6565b5050509392505050565b600082601f830112610a0c57610a0b61082a565b5b6002610a19848285610997565b91505092915050565b600067ffffffffffffffff821115610a3d57610a3c610840565b5b602082029050919050565b6000610a5b610a5684610a22565b6108a0565b90508060208402830185811115610a7557610a746108e1565b5b835b81811015610a9e5780610a8a88826107b2565b845260208401935050602081019050610a77565b5050509392505050565b600082601f830112610abd57610abc61082a565b5b6001610aca848285610a48565b91505092915050565b6000806000806101208587031215610aee57610aed61078c565b5b6000610afc87828801610946565b9450506040610b0d878288016109f7565b93505060c0610b1e87828801610946565b925050610100610b3087828801610aa8565b91505092959194509250565b7f4e487b7100000000000000000000000000000000000000000000000000000000600052603260045260246000fd5b600082825260208201905092915050565b7f496e76616c696420726f6f740000000000000000000000000000000000000000600082015250565b6000610bb2600c83610b6b565b9150610bbd82610b7c565b602082019050919050565b60006020820190508181036000830152610be181610ba5565b9050919050565b600060029050919050565b600081905092915050565b6000819050919050565b610c1181610791565b82525050565b6000610c238383610c08565b60208301905092915050565b6000602082019050919050565b610c4581610be8565b610c4f8184610bf3565b9250610c5a82610bfe565b8060005b83811015610c8b578151610c728782610c17565b9650610c7d83610c2f565b925050600181019050610c5e565b505050505050565b600060029050919050565b600081905092915050565b6000819050919050565b600081905092915050565b610cc781610be8565b610cd18184610cb3565b9250610cdc82610bfe565b8060005b83811015610d0d578151610cf48782610c17565b9650610cff83610c2f565b925050600181019050610ce0565b505050505050565b6000610d218383610cbe565b60408301905092915050565b6000602082019050919050565b610d4381610c93565b610d4d8184610c9e565b9250610d5882610ca9565b8060005b83811015610d89578151610d708782610d15565b9650610d7b83610d2d565b925050600181019050610d5c565b505050505050565b600060019050919050565b600081905092915050565b6000819050919050565b6000602082019050919050565b610dc781610d91565b610dd18184610d9c565b9250610ddc82610da7565b8060005b83811015610e0d578151610df48782610c17565b9650610dff83610db1565b925050600181019050610de0565b505050505050565b600061012082019050610e2b6000830187610c3c565b610e386040830186610d3a565b610e4560c0830185610c3c565b610e53610100830184610dbe565b95945050505050565b610e65816107f4565b8114610e7057600080fd5b50565b600081519050610e8281610e5c565b92915050565b600060208284031215610e9e57610e9d61078c565b5b6000610eac84828501610e73565b91505092915050565b7f496e76616c69642070726f6f6600000000000000000000000000000000000000600082015250565b6000610eeb600d83610b6b565b9150610ef682610eb5565b602082019050919050565b60006020820190508181036000830152610f1a81610ede565b9050919050565b610f2a81610791565b82525050565b6000602082019050610f456000830184610f21565b92915050565b600081519050919050565b60005b83811015610f74578082015181840152602081019050610f59565b60008484015250505050565b6000610f8b82610f4b565b610f958185610b6b565b9350610fa5818560208601610f56565b610fae8161082f565b840191505092915050565b60006040820190508181036000830152610fd38185610f80565b9050610fe26020830184610f21565b9392505050565b600060208201905081810360008301526110038184610f80565b905092915050565b600060408201905081810360008301526110258185610f80565b90506110346020830184610800565b9392505050565b7f4e487b7100000000000000000000000000000000000000000000000000000000600052605160045260246000fdfea2646970667358221220011d8129444dbdb5f27768b5e44f5573c966b04610304061bf16fee4c4445f6464736f6c634300081400334469706c6f6d614d616e61676572206465706c6f79656420776974682076657269666965723a",
  "linkReferences": {},
  "deployedLinkReferences": {}
}